{
  "_format": "hh-sol-artifact-1",
  "contractName": "RansomwareStorage",
  "sourceName": "contracts/RansomwareStorage.sol",
  "abi": [
    {
      "inputs": [
        {
          "internalType": "uint256",
          "name": "",
          "type": "uint256"
        }
      ],
      "name": "events",
      "outputs": [
        {
          "internalType": "string",
          "name": "filename",
          "type": "string"
        },
        {
          "internalType": "string",
          "name": "ipfsHash",
          "type": "string"
        },
        {
          "internalType": "string",
          "name": "status",
          "type": "string"
        },
        {
          "internalType": "uint256",
          "name": "timestamp",
          "type": "uint256"
        }
      ],
      "stateMutability": "view",
      "type": "function"
    },
    {
      "inputs": [
        {
          "internalType": "uint256",
          "name": "index",
          "type": "uint256"
        }
      ],
      "name": "getEvent",
      "outputs": [
        {
          "internalType": "string",
          "name": "",
          "type": "string"
        },
        {
          "internalType": "string",
          "name": "",
          "type": "string"
        },
        {
          "internalType": "string",
          "name": "",
          "type": "string"
        },
        {
          "internalType": "uint256",
          "name": "",
          "type": "uint256"
        }
      ],
      "stateMutability": "view",
      "type": "function"
    },
    {
      "inputs": [],
      "name": "getEventsCount",
      "outputs": [
        {
          "internalType": "uint256",
          "name": "",
          "type": "uint256"
        }
      ],
      "stateMutability": "view",
      "type": "function"
    },
    {
      "inputs": [
        {
          "internalType": "string",
          "name": "filename",
          "type": "string"
        },
        {
          "internalType": "string",
          "name": "ipfsHash",
          "type": "string"
        },
        {
          "internalType": "string",
          "name": "status",
          "type": "string"
        }
      ],
      "name": "storeFileEvent",
      "outputs": [],
      "stateMutability": "nonpayable",
      "type": "function"
    }
  ],
  "bytecode": "0x608060405234801561001057600080fd5b50610ceb806100206000396000f3fe608060405234801561001057600080fd5b506004361061004c5760003560e01c80630b7914301461005157806330366d5f1461008457806331f80f25146100a25780636d1884e0146100be575b600080fd5b61006b6004803603810190610066919061061f565b6100f1565b60405161007b94939291906106eb565b60405180910390f35b61008c6102c9565b6040516100999190610745565b60405180910390f35b6100bc60048036038101906100b79190610895565b6102d5565b005b6100d860048036038101906100d3919061061f565b610374565b6040516100e894939291906106eb565b60405180910390f35b6000818154811061010157600080fd5b90600052602060002090600402016000915090508060000180546101249061096b565b80601f01602080910402602001604051908101604052809291908181526020018280546101509061096b565b801561019d5780601f106101725761010080835404028352916020019161019d565b820191906000526020600020905b81548152906001019060200180831161018057829003601f168201915b5050505050908060010180546101b29061096b565b80601f01602080910402602001604051908101604052809291908181526020018280546101de9061096b565b801561022b5780601f106102005761010080835404028352916020019161022b565b820191906000526020600020905b81548152906001019060200180831161020e57829003601f168201915b5050505050908060020180546102409061096b565b80601f016020809104026020016040519081016040528092919081815260200182805461026c9061096b565b80156102b95780601f1061028e576101008083540402835291602001916102b9565b820191906000526020600020905b81548152906001019060200180831161029c57829003601f168201915b5050505050908060030154905084565b60008080549050905090565b6000604051806080016040528085815260200184815260200183815260200142815250908060018154018082558091505060019003906000526020600020906004020160009091909190915060008201518160000190816103369190610b48565b50602082015181600101908161034c9190610b48565b5060408201518160020190816103629190610b48565b50606082015181600301555050505050565b60608060606000808054905085106103c1576040517f08c379a00000000000000000000000000000000000000000000000000000000081526004016103b890610c66565b60405180910390fd5b60008086815481106103d6576103d5610c86565b5b90600052602060002090600402016040518060800160405290816000820180546103ff9061096b565b80601f016020809104026020016040519081016040528092919081815260200182805461042b9061096b565b80156104785780601f1061044d57610100808354040283529160200191610478565b820191906000526020600020905b81548152906001019060200180831161045b57829003601f168201915b505050505081526020016001820180546104919061096b565b80601f01602080910402602001604051908101604052809291908181526020018280546104bd9061096b565b801561050a5780601f106104df5761010080835404028352916020019161050a565b820191906000526020600020905b8154815290600101906020018083116104ed57829003601f168201915b505050505081526020016002820180546105239061096b565b80601f016020809104026020016040519081016040528092919081815260200182805461054f9061096b565b801561059c5780601f106105715761010080835404028352916020019161059c565b820191906000526020600020905b81548152906001019060200180831161057f57829003601f168201915b50505050508152602001600382015481525050905080600001518160200151826040015183606001519450945094509450509193509193565b6000604051905090565b600080fd5b600080fd5b6000819050919050565b6105fc816105e9565b811461060757600080fd5b50565b600081359050610619816105f3565b92915050565b600060208284031215610635576106346105df565b5b60006106438482850161060a565b91505092915050565b600081519050919050565b600082825260208201905092915050565b60005b8381101561068657808201518184015260208101905061066b565b60008484015250505050565b6000601f19601f8301169050919050565b60006106ae8261064c565b6106b88185610657565b93506106c8818560208601610668565b6106d181610692565b840191505092915050565b6106e5816105e9565b82525050565b6000608082019050818103600083015261070581876106a3565b9050818103602083015261071981866106a3565b9050818103604083015261072d81856106a3565b905061073c60608301846106dc565b95945050505050565b600060208201905061075a60008301846106dc565b92915050565b600080fd5b600080fd5b7f4e487b7100000000000000000000000000000000000000000000000000000000600052604160045260246000fd5b6107a282610692565b810181811067ffffffffffffffff821117156107c1576107c061076a565b5b80604052505050565b60006107d46105d5565b90506107e08282610799565b919050565b600067ffffffffffffffff821115610800576107ff61076a565b5b61080982610692565b9050602081019050919050565b82818337600083830152505050565b6000610838610833846107e5565b6107ca565b90508281526020810184848401111561085457610853610765565b5b61085f848285610816565b509392505050565b600082601f83011261087c5761087b610760565b5b813561088c848260208601610825565b91505092915050565b6000806000606084860312156108ae576108ad6105df565b5b600084013567ffffffffffffffff8111156108cc576108cb6105e4565b5b6108d886828701610867565b935050602084013567ffffffffffffffff8111156108f9576108f86105e4565b5b61090586828701610867565b925050604084013567ffffffffffffffff811115610926576109256105e4565b5b61093286828701610867565b9150509250925092565b7f4e487b7100000000000000000000000000000000000000000000000000000000600052602260045260246000fd5b6000600282049050600182168061098357607f821691505b6020821081036109965761099561093c565b5b50919050565b60008190508160005260206000209050919050565b60006020601f8301049050919050565b600082821b905092915050565b6000600883026109fe7fffffffffffffffffffffffffffffffffffffffffffffffffffffffffffffffff826109c1565b610a0886836109c1565b95508019841693508086168417925050509392505050565b6000819050919050565b6000610a45610a40610a3b846105e9565b610a20565b6105e9565b9050919050565b6000819050919050565b610a5f83610a2a565b610a73610a6b82610a4c565b8484546109ce565b825550505050565b600090565b610a88610a7b565b610a93818484610a56565b505050565b5b81811015610ab757610aac600082610a80565b600181019050610a99565b5050565b601f821115610afc57610acd8161099c565b610ad6846109b1565b81016020851015610ae5578190505b610af9610af1856109b1565b830182610a98565b50505b505050565b600082821c905092915050565b6000610b1f60001984600802610b01565b1980831691505092915050565b6000610b388383610b0e565b9150826002028217905092915050565b610b518261064c565b67ffffffffffffffff811115610b6a57610b6961076a565b5b610b74825461096b565b610b7f828285610abb565b600060209050601f831160018114610bb25760008415610ba0578287015190505b610baa8582610b2c565b865550610c12565b601f198416610bc08661099c565b60005b82811015610be857848901518255600182019150602085019450602081019050610bc3565b86831015610c055784890151610c01601f891682610b0e565b8355505b6001600288020188555050505b505050505050565b7f696e646578206f7574206f662072616e67650000000000000000000000000000600082015250565b6000610c50601283610657565b9150610c5b82610c1a565b602082019050919050565b60006020820190508181036000830152610c7f81610c43565b9050919050565b7f4e487b7100000000000000000000000000000000000000000000000000000000600052603260045260246000fdfea26469706673582212209cbc4b52331aead9b2fd0494060f26cf7882511f21e90cfca1df6061f27698df64736f6c63430008130033",
  "linkReferences": {},
  "deployedLinkReferences": {}
}